:1000000012C019C018C017C016C015C014C013C044
:1000100012C011C010C00FC00EC00DC00CC00BC06C
:100020000AC009C008C011241FBECFE5D4E0DEBF5E
:10003000CDBF02D07CC0E4CFBB9A01E705BD1DD087
:100040005AD06ED06ED0602F4427D6E935D068D014
:10005000102F66D0202F042F2FD032D031D012D0C5
:100060002FD02ED0439506E04013F1CFD6E924D00F
:10007000BB98BB9AC39832D0E7CFBA9AB99AC19AC3
:10008000C298089500EC3ED0702F01EC3BD0802F39
:1000900002EC38D0902F09E42AD0042F28D001E4B4
:1000A00026D0072F24D000E522D0082F20D004E549
:1000B0001ED0092F1CD00895D3BDA9E1DA1B0895E5
:1000C000002702BF01E008BF09BF05E003BF08B772
:1000D00000FFFDCF002708BF03BF08954427F0DFCE
:1000E00043950CE24013FBCFAFCF6395ADCF5D9B43
:1000F000FECF0CB9089508E00AB906E800BD0CE08F
:1001000009B9089507B90DEC06B906B104FFFDCF92
:10011000349A04B115B1169507951695079508956B
:100120000895083110F401E0089500E00895F8946E
:02013000FFCFFF
:00000001FF
